{
  "address": "0x6A6ceADf53EE6342a35160268A62c0edAda2137c",
  "abi": [
    {
      "inputs": [
        {
          "internalType": "address",
          "name": "token_",
          "type": "address"
        },
        {
          "internalType": "uint256",
          "name": "price_",
          "type": "uint256"
        },
        {
          "internalType": "uint256",
          "name": "maxAllocation_",
          "type": "uint256"
        }
      ],
      "stateMutability": "nonpayable",
      "type": "constructor"
    },
    {
      "anonymous": false,
      "inputs": [
        {
          "indexed": true,
          "internalType": "address",
          "name": "previousOwner",
          "type": "address"
        },
        {
          "indexed": true,
          "internalType": "address",
          "name": "newOwner",
          "type": "address"
        }
      ],
      "name": "OwnershipTransferred",
      "type": "event"
    },
    {
      "inputs": [
        {
          "internalType": "address",
          "name": "",
          "type": "address"
        }
      ],
      "name": "allocations",
      "outputs": [
        {
          "internalType": "uint256",
          "name": "",
          "type": "uint256"
        }
      ],
      "stateMutability": "view",
      "type": "function"
    },
    {
      "inputs": [],
      "name": "buy",
      "outputs": [],
      "stateMutability": "payable",
      "type": "function"
    },
    {
      "inputs": [
        {
          "internalType": "uint256",
          "name": "maxAllocation_",
          "type": "uint256"
        }
      ],
      "name": "changeMaxAllocation",
      "outputs": [],
      "stateMutability": "nonpayable",
      "type": "function"
    },
    {
      "inputs": [
        {
          "internalType": "address",
          "name": "token_",
          "type": "address"
        }
      ],
      "name": "changeToken",
      "outputs": [],
      "stateMutability": "nonpayable",
      "type": "function"
    },
    {
      "inputs": [
        {
          "internalType": "uint256",
          "name": "price_",
          "type": "uint256"
        }
      ],
      "name": "changeTokenPrice",
      "outputs": [],
      "stateMutability": "nonpayable",
      "type": "function"
    },
    {
      "inputs": [],
      "name": "getTokensBalance",
      "outputs": [
        {
          "internalType": "uint256",
          "name": "balance",
          "type": "uint256"
        }
      ],
      "stateMutability": "view",
      "type": "function"
    },
    {
      "inputs": [],
      "name": "isPaused",
      "outputs": [
        {
          "internalType": "bool",
          "name": "",
          "type": "bool"
        }
      ],
      "stateMutability": "view",
      "type": "function"
    },
    {
      "inputs": [],
      "name": "maxAllocation",
      "outputs": [
        {
          "internalType": "uint256",
          "name": "",
          "type": "uint256"
        }
      ],
      "stateMutability": "view",
      "type": "function"
    },
    {
      "inputs": [],
      "name": "owner",
      "outputs": [
        {
          "internalType": "address",
          "name": "",
          "type": "address"
        }
      ],
      "stateMutability": "view",
      "type": "function"
    },
    {
      "inputs": [],
      "name": "pauseSale",
      "outputs": [],
      "stateMutability": "nonpayable",
      "type": "function"
    },
    {
      "inputs": [],
      "name": "price",
      "outputs": [
        {
          "internalType": "uint256",
          "name": "",
          "type": "uint256"
        }
      ],
      "stateMutability": "view",
      "type": "function"
    },
    {
      "inputs": [],
      "name": "renounceOwnership",
      "outputs": [],
      "stateMutability": "nonpayable",
      "type": "function"
    },
    {
      "inputs": [],
      "name": "startSale",
      "outputs": [],
      "stateMutability": "nonpayable",
      "type": "function"
    },
    {
      "inputs": [],
      "name": "token",
      "outputs": [
        {
          "internalType": "contract IERC20",
          "name": "",
          "type": "address"
        }
      ],
      "stateMutability": "view",
      "type": "function"
    },
    {
      "inputs": [
        {
          "internalType": "address",
          "name": "newOwner",
          "type": "address"
        }
      ],
      "name": "transferOwnership",
      "outputs": [],
      "stateMutability": "nonpayable",
      "type": "function"
    },
    {
      "inputs": [],
      "name": "withdrawEth",
      "outputs": [],
      "stateMutability": "nonpayable",
      "type": "function"
    },
    {
      "inputs": [],
      "name": "withdrawTokens",
      "outputs": [],
      "stateMutability": "nonpayable",
      "type": "function"
    },
    {
      "stateMutability": "payable",
      "type": "receive"
    }
  ],
  "transactionHash": "0xd786985b2fc8959bcf04632d5a26e09079777b7ea584f35cf7ed60ba908766bf",
  "args": [
    "0x5aD9A7795e2bF86eeDE2148D60120fc8cE9c41a3",
    "1000000000000000",
    "1000000000000000000"
  ],
  "numDeployments": 3,
  "solcInputHash": "0484f819fb92ccb0a4eac340224e42bf",
  "bytecode": "0x60806040523480156200001157600080fd5b50604051620019ab380380620019ab83398181016040528101906200003791906200023b565b620000576200004b620000ca60201b60201c565b620000d260201b60201c565b82600160006101000a81548173ffffffffffffffffffffffffffffffffffffffff021916908373ffffffffffffffffffffffffffffffffffffffff16021790555081600281905550806003819055506000600460006101000a81548160ff02191690831515021790555050505062000297565b600033905090565b60008060009054906101000a900473ffffffffffffffffffffffffffffffffffffffff169050816000806101000a81548173ffffffffffffffffffffffffffffffffffffffff021916908373ffffffffffffffffffffffffffffffffffffffff1602179055508173ffffffffffffffffffffffffffffffffffffffff168173ffffffffffffffffffffffffffffffffffffffff167f8be0079c531659141344cd1fd0a4f28419497f9722a3daafe3b4186f6b6457e060405160405180910390a35050565b600080fd5b600073ffffffffffffffffffffffffffffffffffffffff82169050919050565b6000620001c8826200019b565b9050919050565b620001da81620001bb565b8114620001e657600080fd5b50565b600081519050620001fa81620001cf565b92915050565b6000819050919050565b620002158162000200565b81146200022157600080fd5b50565b60008151905062000235816200020a565b92915050565b60008060006060848603121562000257576200025662000196565b5b60006200026786828701620001e9565b93505060206200027a8682870162000224565b92505060406200028d8682870162000224565b9150509250925092565b61170480620002a76000396000f3fe6080604052600436106101025760003560e01c80639b3ba79f11610095578063b187bd2611610064578063b187bd26146102af578063b66a0e5d146102da578063f2fde38b146102f1578063fbc94f241461031a578063fc0c546a1461034357610109565b80639b3ba79f14610238578063a035b1fe14610263578063a0ef91df1461028e578063a6f2ae3a146102a557610109565b8063715018a6116100d1578063715018a6146101b45780638181847c146101cb5780638d8f2adb146101f65780638da5cb5b1461020d57610109565b806352a9039c1461010e57806355367ba91461014b57806366829b16146101625780636f9d980f1461018b57610109565b3661010957005b600080fd5b34801561011a57600080fd5b5061013560048036038101906101309190610db1565b61036e565b6040516101429190610df7565b60405180910390f35b34801561015757600080fd5b50610160610386565b005b34801561016e57600080fd5b5061018960048036038101906101849190610db1565b6103ab565b005b34801561019757600080fd5b506101b260048036038101906101ad9190610e3e565b6103f7565b005b3480156101c057600080fd5b506101c9610409565b005b3480156101d757600080fd5b506101e061041d565b6040516101ed9190610df7565b60405180910390f35b34801561020257600080fd5b5061020b6104c0565b005b34801561021957600080fd5b50610222610525565b60405161022f9190610e7a565b60405180910390f35b34801561024457600080fd5b5061024d61054e565b60405161025a9190610df7565b60405180910390f35b34801561026f57600080fd5b50610278610554565b6040516102859190610df7565b60405180910390f35b34801561029a57600080fd5b506102a361055a565b005b6102ad6105b2565b005b3480156102bb57600080fd5b506102c46107f7565b6040516102d19190610eb0565b60405180910390f35b3480156102e657600080fd5b506102ef61080a565b005b3480156102fd57600080fd5b5061031860048036038101906103139190610db1565b61082f565b005b34801561032657600080fd5b50610341600480360381019061033c9190610e3e565b6108b2565b005b34801561034f57600080fd5b506103586108c4565b6040516103659190610f2a565b60405180910390f35b60056020528060005260406000206000915090505481565b61038e6108ea565b6001600460006101000a81548160ff021916908315150217905550565b6103b36108ea565b80600160006101000a81548173ffffffffffffffffffffffffffffffffffffffff021916908373ffffffffffffffffffffffffffffffffffffffff16021790555050565b6103ff6108ea565b8060038190555050565b6104116108ea565b61041b6000610968565b565b6000600160009054906101000a900473ffffffffffffffffffffffffffffffffffffffff1673ffffffffffffffffffffffffffffffffffffffff166370a08231306040518263ffffffff1660e01b815260040161047a9190610e7a565b602060405180830381865afa158015610497573d6000803e3d6000fd5b505050506040513d601f19601f820116820180604052508101906104bb9190610f5a565b905090565b6104c86108ea565b6105236104d3610a2c565b6104db61041d565b600160009054906101000a900473ffffffffffffffffffffffffffffffffffffffff1673ffffffffffffffffffffffffffffffffffffffff16610a349092919063ffffffff16565b565b60008060009054906101000a900473ffffffffffffffffffffffffffffffffffffffff16905090565b60035481565b60025481565b6105626108ea565b61056a610525565b73ffffffffffffffffffffffffffffffffffffffff166108fc479081150290604051600060405180830381858888f193505050501580156105af573d6000803e3d6000fd5b50565b60006105bc610a2c565b90506000600254346105ce9190610fe5565b9050600460009054906101000a900460ff1615610620576040517f08c379a000000000000000000000000000000000000000000000000000000000815260040161061790611099565b60405180910390fd5b6002543411610664576040517f08c379a000000000000000000000000000000000000000000000000000000000815260040161065b9061112b565b60405180910390fd5b60035481600560008573ffffffffffffffffffffffffffffffffffffffff1673ffffffffffffffffffffffffffffffffffffffff168152602001908152602001600020546106b2919061114b565b11156106f3576040517f08c379a00000000000000000000000000000000000000000000000000000000081526004016106ea906111f1565b60405180910390fd5b806106fc61041d565b101561073d576040517f08c379a00000000000000000000000000000000000000000000000000000000081526004016107349061125d565b60405180910390fd5b34600560008473ffffffffffffffffffffffffffffffffffffffff1673ffffffffffffffffffffffffffffffffffffffff168152602001908152602001600020600082825461078c919061114b565b925050819055506107f382670de0b6b3a7640000836107ab919061127d565b600160009054906101000a900473ffffffffffffffffffffffffffffffffffffffff1673ffffffffffffffffffffffffffffffffffffffff16610a349092919063ffffffff16565b5050565b600460009054906101000a900460ff1681565b6108126108ea565b6000600460006101000a81548160ff021916908315150217905550565b6108376108ea565b600073ffffffffffffffffffffffffffffffffffffffff168173ffffffffffffffffffffffffffffffffffffffff16036108a6576040517f08c379a000000000000000000000000000000000000000000000000000000000815260040161089d90611331565b60405180910390fd5b6108af81610968565b50565b6108ba6108ea565b8060028190555050565b600160009054906101000a900473ffffffffffffffffffffffffffffffffffffffff1681565b6108f2610a2c565b73ffffffffffffffffffffffffffffffffffffffff16610910610525565b73ffffffffffffffffffffffffffffffffffffffff1614610966576040517f08c379a000000000000000000000000000000000000000000000000000000000815260040161095d9061139d565b60405180910390fd5b565b60008060009054906101000a900473ffffffffffffffffffffffffffffffffffffffff169050816000806101000a81548173ffffffffffffffffffffffffffffffffffffffff021916908373ffffffffffffffffffffffffffffffffffffffff1602179055508173ffffffffffffffffffffffffffffffffffffffff168173ffffffffffffffffffffffffffffffffffffffff167f8be0079c531659141344cd1fd0a4f28419497f9722a3daafe3b4186f6b6457e060405160405180910390a35050565b600033905090565b610ab58363a9059cbb60e01b8484604051602401610a539291906113bd565b604051602081830303815290604052907bffffffffffffffffffffffffffffffffffffffffffffffffffffffff19166020820180517bffffffffffffffffffffffffffffffffffffffffffffffffffffffff8381831617835250505050610aba565b505050565b6000610b1c826040518060400160405280602081526020017f5361666545524332303a206c6f772d6c6576656c2063616c6c206661696c65648152508573ffffffffffffffffffffffffffffffffffffffff16610b819092919063ffffffff16565b9050600081511115610b7c5780806020019051810190610b3c9190611412565b610b7b576040517f08c379a0000000000000000000000000000000000000000000000000000000008152600401610b72906114b1565b60405180910390fd5b5b505050565b6060610b908484600085610b99565b90509392505050565b606082471015610bde576040517f08c379a0000000000000000000000000000000000000000000000000000000008152600401610bd590611543565b60405180910390fd5b6000808673ffffffffffffffffffffffffffffffffffffffff168587604051610c0791906115d4565b60006040518083038185875af1925050503d8060008114610c44576040519150601f19603f3d011682016040523d82523d6000602084013e610c49565b606091505b5091509150610c5a87838387610c66565b92505050949350505050565b60608315610cc8576000835103610cc057610c8085610cdb565b610cbf576040517f08c379a0000000000000000000000000000000000000000000000000000000008152600401610cb690611637565b60405180910390fd5b5b829050610cd3565b610cd28383610cfe565b5b949350505050565b6000808273ffffffffffffffffffffffffffffffffffffffff163b119050919050565b600082511115610d115781518083602001fd5b806040517f08c379a0000000000000000000000000000000000000000000000000000000008152600401610d4591906116ac565b60405180910390fd5b600080fd5b600073ffffffffffffffffffffffffffffffffffffffff82169050919050565b6000610d7e82610d53565b9050919050565b610d8e81610d73565b8114610d9957600080fd5b50565b600081359050610dab81610d85565b92915050565b600060208284031215610dc757610dc6610d4e565b5b6000610dd584828501610d9c565b91505092915050565b6000819050919050565b610df181610dde565b82525050565b6000602082019050610e0c6000830184610de8565b92915050565b610e1b81610dde565b8114610e2657600080fd5b50565b600081359050610e3881610e12565b92915050565b600060208284031215610e5457610e53610d4e565b5b6000610e6284828501610e29565b91505092915050565b610e7481610d73565b82525050565b6000602082019050610e8f6000830184610e6b565b92915050565b60008115159050919050565b610eaa81610e95565b82525050565b6000602082019050610ec56000830184610ea1565b92915050565b6000819050919050565b6000610ef0610eeb610ee684610d53565b610ecb565b610d53565b9050919050565b6000610f0282610ed5565b9050919050565b6000610f1482610ef7565b9050919050565b610f2481610f09565b82525050565b6000602082019050610f3f6000830184610f1b565b92915050565b600081519050610f5481610e12565b92915050565b600060208284031215610f7057610f6f610d4e565b5b6000610f7e84828501610f45565b91505092915050565b7f4e487b7100000000000000000000000000000000000000000000000000000000600052601260045260246000fd5b7f4e487b7100000000000000000000000000000000000000000000000000000000600052601160045260246000fd5b6000610ff082610dde565b9150610ffb83610dde565b92508261100b5761100a610f87565b5b828204905092915050565b600082825260208201905092915050565b7f546f6b656e53616c653a2073616c65206973206e6f742061637469766520617460008201527f2074686174206d6f6d656e740000000000000000000000000000000000000000602082015250565b6000611083602c83611016565b915061108e82611027565b604082019050919050565b600060208201905081810360008301526110b281611076565b9050919050565b7f546f6b656e53616c653a20796f752074727920627579206c657373207468616e60008201527f206f6e6520746f6b656e00000000000000000000000000000000000000000000602082015250565b6000611115602a83611016565b9150611120826110b9565b604082019050919050565b6000602082019050818103600083015261114481611108565b9050919050565b600061115682610dde565b915061116183610dde565b925082820190508082111561117957611178610fb6565b5b92915050565b7f546f6b656e53616c653a20796f752074727920627579206d6f7265207468616e60008201527f206d617820616c6c6f636174696f6e0000000000000000000000000000000000602082015250565b60006111db602f83611016565b91506111e68261117f565b604082019050919050565b6000602082019050818103600083015261120a816111ce565b9050919050565b7f546f6b656e53616c653a206e6f7420656e6f75676820746f6b656e7300000000600082015250565b6000611247601c83611016565b915061125282611211565b602082019050919050565b600060208201905081810360008301526112768161123a565b9050919050565b600061128882610dde565b915061129383610dde565b92508282026112a181610dde565b915082820484148315176112b8576112b7610fb6565b5b5092915050565b7f4f776e61626c653a206e6577206f776e657220697320746865207a65726f206160008201527f6464726573730000000000000000000000000000000000000000000000000000602082015250565b600061131b602683611016565b9150611326826112bf565b604082019050919050565b6000602082019050818103600083015261134a8161130e565b9050919050565b7f4f776e61626c653a2063616c6c6572206973206e6f7420746865206f776e6572600082015250565b6000611387602083611016565b915061139282611351565b602082019050919050565b600060208201905081810360008301526113b68161137a565b9050919050565b60006040820190506113d26000830185610e6b565b6113df6020830184610de8565b9392505050565b6113ef81610e95565b81146113fa57600080fd5b50565b60008151905061140c816113e6565b92915050565b60006020828403121561142857611427610d4e565b5b6000611436848285016113fd565b91505092915050565b7f5361666545524332303a204552433230206f7065726174696f6e20646964206e60008201527f6f74207375636365656400000000000000000000000000000000000000000000602082015250565b600061149b602a83611016565b91506114a68261143f565b604082019050919050565b600060208201905081810360008301526114ca8161148e565b9050919050565b7f416464726573733a20696e73756666696369656e742062616c616e636520666f60008201527f722063616c6c0000000000000000000000000000000000000000000000000000602082015250565b600061152d602683611016565b9150611538826114d1565b604082019050919050565b6000602082019050818103600083015261155c81611520565b9050919050565b600081519050919050565b600081905092915050565b60005b8381101561159757808201518184015260208101905061157c565b60008484015250505050565b60006115ae82611563565b6115b8818561156e565b93506115c8818560208601611579565b80840191505092915050565b60006115e082846115a3565b915081905092915050565b7f416464726573733a2063616c6c20746f206e6f6e2d636f6e7472616374000000600082015250565b6000611621601d83611016565b915061162c826115eb565b602082019050919050565b6000602082019050818103600083015261165081611614565b9050919050565b600081519050919050565b6000601f19601f8301169050919050565b600061167e82611657565b6116888185611016565b9350611698818560208601611579565b6116a181611662565b840191505092915050565b600060208201905081810360008301526116c68184611673565b90509291505056fea2646970667358221220ade1942ca797a40c4fa5d1662d1553d23efa33da37d1a0843f7e1b3405cd8aee64736f6c63430008110033",
  "devdoc": {
    "kind": "dev",
    "methods": {
      "owner()": {
        "details": "Returns the address of the current owner."
      },
      "renounceOwnership()": {
        "details": "Leaves the contract without owner. It will not be possible to call `onlyOwner` functions anymore. Can only be called by the current owner. NOTE: Renouncing ownership will leave the contract without an owner, thereby removing any functionality that is only available to the owner."
      },
      "transferOwnership(address)": {
        "details": "Transfers ownership of the contract to a new account (`newOwner`). Can only be called by the current owner."
      }
    },
    "version": 1
  },
  "userdoc": {
    "kind": "user",
    "methods": {},
    "version": 1
  },
  "storageLayout": {
    "storage": [
      {
        "astId": 7,
        "contract": "contracts/TokenSale.sol:TokenSale",
        "label": "_owner",
        "offset": 0,
        "slot": "0",
        "type": "t_address"
      },
      {
        "astId": 873,
        "contract": "contracts/TokenSale.sol:TokenSale",
        "label": "token",
        "offset": 0,
        "slot": "1",
        "type": "t_contract(IERC20)190"
      },
      {
        "astId": 875,
        "contract": "contracts/TokenSale.sol:TokenSale",
        "label": "price",
        "offset": 0,
        "slot": "2",
        "type": "t_uint256"
      },
      {
        "astId": 877,
        "contract": "contracts/TokenSale.sol:TokenSale",
        "label": "maxAllocation",
        "offset": 0,
        "slot": "3",
        "type": "t_uint256"
      },
      {
        "astId": 879,
        "contract": "contracts/TokenSale.sol:TokenSale",
        "label": "isPaused",
        "offset": 0,
        "slot": "4",
        "type": "t_bool"
      },
      {
        "astId": 883,
        "contract": "contracts/TokenSale.sol:TokenSale",
        "label": "allocations",
        "offset": 0,
        "slot": "5",
        "type": "t_mapping(t_address,t_uint256)"
      }
    ],
    "types": {
      "t_address": {
        "encoding": "inplace",
        "label": "address",
        "numberOfBytes": "20"
      },
      "t_bool": {
        "encoding": "inplace",
        "label": "bool",
        "numberOfBytes": "1"
      },
      "t_contract(IERC20)190": {
        "encoding": "inplace",
        "label": "contract IERC20",
        "numberOfBytes": "20"
      },
      "t_mapping(t_address,t_uint256)": {
        "encoding": "mapping",
        "key": "t_address",
        "label": "mapping(address => uint256)",
        "numberOfBytes": "32",
        "value": "t_uint256"
      },
      "t_uint256": {
        "encoding": "inplace",
        "label": "uint256",
        "numberOfBytes": "32"
      }
    }
  }
}